8=FIX.4.4|9=76|35=A|34=1|49=CLIENT1|52=20250213-18:38:53.241|56=EXECUTOR|98=0|108=30|141=Y|10=145|