8=FIX.4.4|9=91|35=A|34=1|49=OrderGenerator|52=20250213-15:51:15.893|56=OrderAccumulator|98=0|108=30|141=Y|10=081|8=FIX.4.4|9=73|35=0|34=2|49=OrderGenerator|52=20250213-15:51:46.258|56=OrderAccumulator|10=250|8=FIX.4.4|9=73|35=0|34=3|49=OrderGenerator|52=20250213-15:52:16.503|56=OrderAccumulator|10=242|8=FIX.4.4|9=73|35=0|34=4|49=OrderGenerator|52=20250213-15:52:46.762|56=OrderAccumulator|10=253|8=FIX.4.4|9=85|35=A|34=5|49=OrderGenerator|52=20250213-15:53:02.986|56=OrderAccumulator|98=0|108=30|10=044|