8=FIX.4.4|9=155|35=D|34=1|49=INITIATOR|52=20250213-19:59:39.363|56=ACCEPTOR|11=eb3dc81c-78ea-4435-80c1-cc75a7ce950b|38=2|40=2|44=20|54=1|55=PETR4|60=20250213-19:59:37.407|10=039|8=FIX.4.4|9=155|35=D|34=2|49=INITIATOR|52=20250213-20:01:36.970|56=ACCEPTOR|11=717f387d-48c6-4de1-a4f0-1dd0406f1bf4|38=2|40=2|44=10|54=1|55=PETR4|60=20250213-20:01:35.792|10=162|8=FIX.4.4|9=155|35=D|34=3|49=INITIATOR|52=20250213-20:08:56.325|56=ACCEPTOR|11=c867bbe0-27cb-45a8-8556-03c1b171cef0|38=1|40=2|44=20|54=1|55=PETR4|60=20250213-20:08:51.901|10=157|8=FIX.4.4|9=155|35=D|34=4|49=INITIATOR|52=20250213-20:08:56.346|56=ACCEPTOR|11=c45e0555-0c16-4a0e-9ede-62ae2ba5e7a1|38=1|40=2|44=20|54=1|55=PETR4|60=20250213-20:08:51.096|10=254|